:100000000C942A000C9434000C9434000C943400AA
:100010000C9434000C9434000C9434000C94340090
:100020000C9434000C9434000C9434000C94340080
:100030000C9434000C9434000C9434000C94340070
:100040000C9434000C9434000C9434000C94340060
:100050000C94340011241FBECFE5D8E0DEBFCDBF25
:100060000E947E000C9485000C9400008FEF8ABBE8
:1000700008958FEF8BBB08951BBA08958FEF8BBB4C
:100080002FEF43ED80E3215040408040E1F700C076
:10009000000020E030E061E04BB3862F022E01C06B
:1000A000880F0A94EAF7809584238BBB9FEF49E67B
:1000B00088E1915040408040E1F700C000002F5F90
:1000C0003F4F2830310541F7089585E09FEF9BBBF6
:1000D0002FEF34E34CE0215030404040E1F700C0C6
:1000E00000001BBA2FEF34E34CE021503040404079
:1000F000E1F700C00000815051F708950E943600DA
:0E0100000E943E000E946500FBCFF894FFCFE6
:00000001FF
